:020000040800F2
:10000000900600205D0100086501000867010008F6
:10001000690100086B0100086D0100080000000084
:100020000000000000000000000000006F01000858
:10003000710100080000000073010008750100084C
:100040007701000877010008770100080000000030
:100050000000000077010008770100087701000820
:100060007701000800000000770100087701000810
:100070007701000800000000770100087701000800
:1000800077010008770100080000000077010008F0
:1000900077010008000000000000000000000000E0
:1000A00000000000000000000000000077010008D0
:1000B0007701000877010008770100087701000840
:1000C00000F002F800F03AF80AA090E8000C824430
:1000D0008344AAF10107DA4501D100F02FF8AFF20D
:1000E000090EBAE80F0013F0010F18BFFB1A43F016
:1000F000010318473C0900005C090000103A24BFC6
:1001000078C878C1FAD8520724BF30C830C144BF7C
:1001100004680C60704700000023002400250026BE
:10012000103A28BF78C1FBD8520728BF30C148BF5A
:100130000B6070471FB51FBD10B510BD00F031F842
:100140001146FFF7F7FF00F067FC00F04FF803B42B
:10015000FFF7F2FF03BC00F057F8000009488047A2
:1001600009480047FEE7FEE7FEE7FEE7FEE7FEE799
:10017000FEE7FEE7FEE7FEE704480549054A064BB1
:1001800070470000B1080008C1000008900000207E
:1001900090060020900200209002002070477047D7
:1001A0007047754600F02CF8AE4605006946534688
:1001B00020F00700854618B020B5FFF7DDFFBDE849
:1001C00020404FF000064FF000074FF000084FF0BE
:1001D000000B21F00701AC46ACE8C009ACE8C0094F
:1001E000ACE8C009ACE8C0098D46704710B50446BC
:1001F000AFF300802046BDE81040FFF7A8BF000025
:10020000004870473000002001491820ABBEFEE7CF
:10021000260002007047000010B50121080600F01A
:10022000D5FA00201B49C870087148718871C871DF
:100230000220087203204872012088728870022010
:100240000880154800F068F80020124988700120E5
:100250000880114800F060F80021032000F05CF9EC
:100260000121802000F0B2FA00210C4800F046FB8A
:100270000B480C490860602088800020C8800881F5
:1002800048818881054800F06BFB0121034800F09C
:1002900053FB10BD1400002000000C400080034000
:1002A00038C101002000002010B50121480600F0EF
:1002B0008DFA174800F022F91549164800F02CF87D
:1002C00000214FF0007000F081FA0121480600F093
:1002D0007DFA0F200E4908800120887000200872E6
:1002E0000120887248720B4800F016F80121094875
:1002F00000F0F6F80221074800F0F2F80421054862
:1003000000F0EEF80821034800F0EAF810BD000004
:100310000800002000800C402DE9FE4F4768D0F80F
:1003200008C0D0F80C80D0F81090D0F814A0CDF808
:1003300008A0D0F818A0CDF804A0D0F81CA0CDF8E3
:1003400000A00022012303254FF001160C885FE076
:1003500004F0010ABAF1000F55D027EA030A91F818
:1003600002B00BFA02FB4AEA0B0791F808A04FEA29
:10037000420B0AFA0BFA2CEA050B4AEA0B0C28EAA4
:10038000030A91F80AB00BFA02FB4AEA0B0829EAC1
:10039000060A91F803B002F1100E0BFA0EFB4AEABE
:1003A0000B0A91F804B00BFA02FB4AEA0B09DDF8DC
:1003B00008A02AEA060A91F805B00BFA0EFB4AEAF1
:1003C0000B0A91F806B00BFA02FB4AEA0B0ACDF8C9
:1003D00008A091F809A04FEA420B0AFA0BFADDF8DF
:1003E00004B02BEA050B4AEA0B0ACDF804A0DDF8AD
:1003F00000A02AEA030A91F807B00BFA02FB4AEAC6
:100400000B0ACDF800A05B00AD007600521C64081A
:10041000002C9DD1DFF8C4A0504502D14FF01F0A37
:1004200001E04FF0000A27EA0A0AC0F804A0DFF84A
:10043000ACA0504502D14FF01F0A01E04FF0000A76
:100440002CEA0A0AC0F808A0DFF890A0504502D1B3
:100450004FF01F0A01E04FF0000A28EA0A0AC0F82C
:100460000CA0DFF878A0504502D14FF01F0A01E040
:100470004FF0000A29EA0A0AC0F810A0DFF85CA0D1
:10048000504502D14FF01F0B01E04FF0000BDDF89B
:1004900008A02AEA0B0AC0F814A0DFF840A05045D3
:1004A00002D14FF01F0B01E04FF0000BDDF804A06C
:1004B0002AEA0B0AC0F818A0DFF820A0504502D1A4
:1004C0004FF01F0B01E04FF0000BDDF800A02AEA0F
:1004D0000B0AC0F81CA0BDE8FE8F000000000C4015
:1004E0000268054B984201D11F2300E000239A4384
:1004F0000A4302607047000000000C404FF6FF7195
:10050000018000218170C170017141718171C171DF
:10051000017241728172704710B502460C4BD86867
:1005200020F003001043D860586820F4706040EA5F
:1005300001205860074B1B6843B10123054C241D63
:1005400023600023034C883CC4F88C3010BD0000AD
:1005500000000240880040422DE9FC4F0146DFF8D0
:1005600064B2DBF80CB00BF0020BBBF1000F01D052
:10057000954B00E0944BDFF84CB2DBF80CB00BF07D
:10058000010BBBF1000F00D05B081C46DFF834B252
:10059000DBF80CB00BF0040BBBF1000F0DD0DFF853
:1005A00024B2DBF804B0CBF3032B0BF1010BCDF835
:1005B00000B0DDF800B004FB0BF4DFF808B2DBF8A4
:1005C0000CB0CBF3012BBBF1000F06D0BBF1010F38
:1005D00008D0BBF1020F28D122E0DFF8ECB1C1F85E
:1005E00000B027E0DFF8DCB1DBF80CB04FF0080E0C
:1005F0000EEA1B1BBBF1000F01D1A0460DE0DFF896
:10060000C4B1DBF80CB0CBF3021B0BF1010B4FF0C4
:10061000010E0EFA0BFEB4FBFEF8C1F8008009E0F3
:100620004FF4004BC1F800B004E049F6404BC1F86C
:1006300000B000BF00BFDFF88CB1DBF810B00BF0EA
:10064000020BBBF1000F01D05F4D00E05E4DDFF803
:1006500074B1DBF810B00BF0010BBBF1000F00D050
:100660006D082F46DFF85CB1DBF810B00BF0040B1F
:10067000BBF1000F0DD0DFF84CB1DBF804B0CBF3C9
:10068000031B0BF1010BCDF800B0DDF800B007FB48
:100690000BF7B946DFF82CB1DBF810B00BF0100BFC
:1006A000BBF1000F01D04FEA5909C1F80490DFF8FF
:1006B00014B1DBF818B04FEA1B1000F0080BBBF1C7
:1006C000000F02D1DFF800C10BE000F0070B0BF1C7
:1006D000010B4FF0010E0EFA0BF0DFF8ECB0BBFB94
:1006E000F0FCC1F80CC0DFF8DCB0DBF8180000F05B
:1006F000080BBBF1000F04D1DFF8CCB0CDF804B08B
:100700000DE000F0070B0BF1010B4FF0010E0EFA9C
:100710000BF0DFF8B4B0BBFBF0FBCDF804B0DDF8B4
:1007200004B0C1F810B0DFF89CB0DBF814B00BF0E7
:10073000030BBBF1000F06D0BBF1010F05D0BBF1DD
:10074000020F06D103E01E4605E02E4603E02646D2
:1007500001E03E4600BF00BFDFF868B0DBF814B030
:10076000CBF3011BBBF1000F06D0BBF1010F06D08C
:10077000BBF1020F08D105E04FF4004206E049F654
:10078000404203E0324601E0624600BF00BFDFF8AE
:1007900034B0DBF814B04FEA1B2000F0080BBBF1BB
:1007A000000F01D1924609E000F0070B0BF1010B9D
:1007B0004FF0010E0EFA0BF0B2FBF0FAC1F808A0F0
:1007C000BDE8FC8F0000024000127A0029B1064A01
:1007D000D2690243044BDA6104E0034AD2698243DE
:1007E000014BDA61704700000000024010B504467A
:1007F00000BF8021054800F0ABF80128F9D121465F
:10080000024800F005F9002010BD00000080034000
:1008100070B5244AD26802F00202022A01D12248AD
:1008200000E021481F4AD26802F0010202B14008EC
:1008300001461C4AD26802F00402042A05D1194A72
:100840005268C2F30322541C6143164AD268C2F3B1
:10085000012222B1012A06D0022A1BD115E0124D35
:10086000124E35601BE00F4DED68C5F3031202F028
:10087000080535B102F0070202259540B1FBF5F3FA
:1008800000E00B46094D2B6009E04FF40045074E90
:10089000356004E049F64045044E356000BF00BFB6
:1008A00070BD00000000024000127A000400002029
:1008B00000B54FF000600E4908600E480E49C8614F
:1008C0000846C0680020C8600846406800204860AC
:1008D000084680680020886008460069002008619A
:1008E0000846406900204861FFF792FF00BD000004
:1008F00008ED00E0100000080000024002460B4B2B
:10090000986A0B4B9A4205D140F0807020F0FF00AE
:10091000084308E0074B9A4205D140F0007020F4EC
:100920007F4040EA0120014B98627047000002407E
:10093000000003400080034021B1026B42F001023D
:10094000026304E0026B4FF6FE731A4002637047C5
:10095000024693690B400BB1012000E00020704774
:100960002DE9F04F87B004460D4601A8FFF7F4FDCE
:10097000019F2448866A2448844206D106F0070174
:1009800001208840B7FBF0F708E02048844205D1F9
:10099000C6F3022101208840B7FBF0F728688008E1
:1009A000B7FBF0F94FEA991809F03F0AB8000AEBD3
:1009B0008811B0FBF1FB2868ABEB0000C00129688F
:1009C000B0FBF1F006900698022803D9002007B08A
:1009D000BDE8F08FC4F82480C4F828A0E66AA8888F
:1009E000E988084329890843698908430643E66280
:1009F000266B4FF680708643A88906432663012044
:100A0000E5E70000000002400000034000800340D2
:100A1000CAB2026070470000FFF746FCFFF7FCFB1C
:100A200003E002480078FFF7E1FEFAE7000000204B
:100A3000500A00080000002008000000FC00000828
:100A4000580A000808000020880600001801000865
:080A5000FF00000000127A0013
:04000005080000C12E
:00000001FF
