:020000040800F2
:10000000A00600205D0100086501000867010008E6
:10001000690100086B0100086D0100080000000084
:100020000000000000000000000000006F01000858
:10003000710100080000000073010008750100084C
:100040007701000877010008770100080000000030
:10005000000000007701000877010008590A000835
:100060007701000800000000770100087701000810
:100070007701000800000000770100087701000800
:1000800077010008770100080000000077010008F0
:1000900077010008000000000000000000000000E0
:1000A00000000000000000000000000077010008D0
:1000B0007701000877010008770100087701000840
:1000C00000F002F800F03AF80AA090E8000C824430
:1000D0008344AAF10107DA4501D100F02FF8AFF20D
:1000E000090EBAE80F0013F0010F18BFFB1A43F016
:1000F00001031847080B0000280B0000103A24BF2A
:1001000078C878C1FAD8520724BF30C830C144BF7C
:1001100004680C60704700000023002400250026BE
:10012000103A28BF78C1FBD8520728BF30C148BF5A
:100130000B6070471FB51FBD10B510BD00F031F842
:100140001146FFF7F7FF00F03DFD00F04FF803B454
:10015000FFF7F2FF03BC00F057F8000009488047A2
:1001600009480047FEE7FEE7FEE7FEE7FEE7FEE799
:10017000FEE7FEE7FEE7FEE704480549054A064BB1
:10018000704700000D0A0008C1000008A000002010
:10019000A0060020A0020020A002002070477047A7
:1001A0007047754600F02CF8AE4605006946534688
:1001B00020F00700854618B020B5FFF7DDFFBDE849
:1001C00020404FF000064FF000074FF000084FF0BE
:1001D000000B21F00701AC46ACE8C009ACE8C0094F
:1001E000ACE8C009ACE8C0098D46704710B50446BC
:1001F000AFF300802046BDE81040FFF7A8BF000025
:10020000004870474000002001491820ABBEFEE7BF
:10021000260002007047000010B501210A4800F0D6
:10022000A1F9002401E0601C84B208488442FADB92
:100230000121054800F0A4F9002401E0601C84B20B
:1002400002488442FADB10BD00800C408096980082
:1002500010B500F0ADF901201049886000BF0F48CB
:10026000006800F004000028F9D028200C4908603C
:1002700040F604000949486000BF0848006800F0E3
:1002800002000028F9D01820054908600348C0681A
:1002900040F483700149C86010BD000000000240B6
:1002A0000080014010B50121080600F00BFB002082
:1002B0002249C870087148718871C871022008729B
:1002C0004872012088728870022008801C4800F063
:1002D00065F800201949887001200880184800F04E
:1002E0005DF80121802000F0EDFA07200121814016
:1002F0004209920002F1E022C2F8001100BF07217A
:10030000104800F0BFFB012210210E4800F0F0FB66
:100310004FF416500C490860602088800020C88087
:10032000088148814FF440708881064800F0EAFB5C
:100330000121044800F0C8FB10BD0000240000208B
:1003400000000C40008003403000002010B5012167
:10035000480600F0B7FA0F200E4908800120887087
:10036000002008720120887248720B4800F016F8CD
:100370000121094800F004F90221074800F000F9C2
:100380000421054800F0FCF80821034800F0F8F8C3
:1003900010BD00001800002000800C402DE9FE4F29
:1003A0004768D0F808C0D0F80C80D0F81090D0F88A
:1003B00014A0CDF808A0D0F818A0CDF804A0D0F86B
:1003C0001CA0CDF800A00022012303254FF0011648
:1003D0000C885FE004F0010ABAF1000F55D027EA5B
:1003E000030A91F802B00BFA02FB4AEA0B0791F8F4
:1003F00008A04FEA420B0AFA0BFA2CEA050B4AEA6C
:100400000B0C28EA030A91F80AB00BFA02FB4AEA3D
:100410000B0829EA060A91F803B002F1100E0BFA54
:100420000EFB4AEA0B0A91F804B00BFA02FB4AEA07
:100430000B09DDF808A02AEA060A91F805B00BFAC4
:100440000EFB4AEA0B0A91F806B00BFA02FB4AEAE5
:100450000B0ACDF808A091F809A04FEA420B0AFA5E
:100460000BFADDF804B02BEA050B4AEA0B0ACDF8CB
:1004700004A0DDF800A02AEA030A91F807B00BFAFD
:1004800002FB4AEA0B0ACDF800A05B00AD00760043
:10049000521C6408002C9DD1DFF8C4A0504502D145
:1004A0004FF01F0A01E04FF0000A27EA0A0AC0F8DD
:1004B00004A0DFF8ACA0504502D14FF01F0A01E0C4
:1004C0004FF0000A2CEA0A0AC0F808A0DFF890A052
:1004D000504502D14FF01F0A01E04FF0000A28EA10
:1004E0000A0AC0F80CA0DFF878A0504502D14FF0FE
:1004F0001F0A01E04FF0000A29EA0A0AC0F810A01A
:10050000DFF85CA0504502D14FF01F0B01E04FF027
:10051000000BDDF808A02AEA0B0AC0F814A0DFF8E7
:1005200040A0504502D14FF01F0B01E04FF0000BEF
:10053000DDF804A02AEA0B0AC0F818A0DFF820A012
:10054000504502D14FF01F0B01E04FF0000BDDF8DA
:1005500000A02AEA0B0AC0F81CA0BDE8FE8F00002C
:1005600000000C400268054B984201D11F2300E0B7
:1005700000230B439A4302607047000000000C40C8
:100580000268054B984201D11F2300E000239A43E3
:100590000A4302607047000000000C400146034A15
:1005A000D06820F440700843D060704700000240DB
:1005B00000B500F097F90121C80600F083F906485C
:1005C000C06B40F481000449C8630846C06B00F466
:1005D0008100C86300BD000000800D402DE9FC4F84
:1005E0000146DFF864B2DBF80CB00BF0020BBBF194
:1005F000000F01D0954B00E0944BDFF84CB2DBF8D4
:100600000CB00BF0010BBBF1000F00D05B081C46D7
:10061000DFF834B2DBF80CB00BF0040BBBF1000FC9
:100620000DD0DFF824B2DBF804B0CBF3032B0BF1D1
:10063000010BCDF800B0DDF800B004FB0BF4DFF8DF
:1006400008B2DBF80CB0CBF3012BBBF1000F06D0E6
:10065000BBF1010F08D0BBF1020F28D122E0DFF877
:10066000ECB1C1F800B027E0DFF8DCB1DBF80CB08A
:100670004FF0080E0EEA1B1BBBF1000F01D1A04684
:100680000DE0DFF8C4B1DBF80CB0CBF3021B0BF1CB
:10069000010B4FF0010E0EFA0BFEB4FBFEF8C1F891
:1006A000008009E04FF4004BC1F800B004E049F6C7
:1006B000404BC1F800B000BF00BFDFF88CB1DBF8E1
:1006C00010B00BF0020BBBF1000F01D05F4D00E04A
:1006D0005E4DDFF874B1DBF810B00BF0010BBBF12D
:1006E000000F00D06D082F46DFF85CB1DBF810B0CA
:1006F0000BF0040BBBF1000F0DD0DFF84CB1DBF8B1
:1007000004B0CBF3031B0BF1010BCDF800B0DDF807
:1007100000B007FB0BF7B946DFF82CB1DBF810B0DF
:100720000BF0100BBBF1000F01D04FEA5909C1F8D3
:100730000490DFF814B1DBF818B04FEA1B1000F09A
:10074000080BBBF1000F02D1DFF800C10BE000F095
:10075000070B0BF1010B4FF0010E0EFA0BF0DFF857
:10076000ECB0BBFBF0FCC1F80CC0DFF8DCB0DBF890
:10077000180000F0080BBBF1000F04D1DFF8CCB07B
:10078000CDF804B00DE000F0070B0BF1010B4FF0BA
:10079000010E0EFA0BF0DFF8B4B0BBFBF0FBCDF8A6
:1007A00004B0DDF804B0C1F810B0DFF89CB0DBF89D
:1007B00014B00BF0030BBBF1000F06D0BBF1010F1F
:1007C00005D0BBF1020F06D103E01E4605E02E4620
:1007D00003E0264601E03E4600BF00BFDFF868B0F8
:1007E000DBF814B0CBF3011BBBF1000F06D0BBF15B
:1007F000010F06D0BBF1020F08D105E04FF4004213
:1008000006E049F6404203E0324601E0624600BF9E
:1008100000BFDFF834B0DBF814B04FEA1B2000F063
:10082000080BBBF1000F01D1924609E000F0070B65
:100830000BF1010B4FF0010E0EFA0BF0B2FBF0FAC8
:10084000C1F808A0BDE8FC8F0000024000127A0049
:1008500010B5014601F0E003202B02D1074B1A68C6
:1008600001E0074BDA6B01F01F040123A3401340A2
:100870000BB1012000E0002010BD0000000002408C
:1008800000800D400149086070470000D807B04360
:1008900038B50020009000BF1720FFF7D9FF0546AC
:1008A0000098401C00900098B0F5C06F01D2002D58
:1008B000F2D01720FFF7CCFF08B1012400E000249C
:1008C000204638BD29B1064AD2690243044BDA6199
:1008D00004E0034AD2698243014BDA6170470000A9
:1008E0000000024000B50120FFF7CCFFFFF7D0FF6A
:1008F0000020FFF753FE0E48C06800200C49C86076
:1009000008464068002048600846806800208860EB
:1009100008460069002008610846406900204861D7
:1009200008468069002088610248C86100BD000057
:100930000000024010000008816070471CB508A14B
:1009400003C9CDE90001002405E01DF804100648A4
:1009500000F034F9641C072CF7DB00201CBD0000FC
:1009600048656C6C6F770A000080034070B5244ABC
:10097000D26802F00202022A01D1224800E0214896
:100980001F4AD26802F0010202B1400801461C4A27
:10099000D26802F00402042A05D1194A5268C2F34F
:1009A0000322541C6143164AD268C2F3012222B1C9
:1009B000012A06D0022A1BD115E0124D124E3560D5
:1009C0001BE00F4DED68C5F3031202F0080535B1C9
:1009D00002F0070202259540B1FBF5F300E00B465B
:1009E000094D2B6009E04FF40045074E356004E0E7
:1009F00049F64045044E356000BF00BF70BD0000A1
:100A00000000024000127A000000002000B54FF004
:100A100000600E4908600E480E49C8610846C0686B
:100A20000020C8600846406800204860084680688A
:100A30000020886008460069002008610846406977
:100A400000204861FFF792FF00BD000008ED00E0C4
:100A5000100000080000024010B51021084800F006
:100A60003FF801280BD11021054800F029F804486F
:100A700000F0A0F804462146014800F09FF810BDA0
:100A80000080034002460B4B986A0B4B9A4205D1FB
:100A900040F0807020F0FF00084308E0074B9A42C6
:100AA00005D140F0007020F47F4040EA0120014B66
:100AB000986270470000024000000340008003403D
:100AC000426C0A434264704721B1026B42F001025A
:100AD000026304E0026B4FF6FE731A400263704734
:100AE0000246136C0B400BB1012000E00020704760
:100AF0001AB1836B0B43836302E0836B8B43836385
:100B0000704700002DE9F04F87B004460D4601A85C
:100B1000FFF764FD019F2448866A2448844206D179
:100B200006F0070101208840B7FBF0F708E02048F5
:100B3000844205D1C6F3022101208840B7FBF0F7BB
:100B400028688008B7FBF0F94FEA991809F03F0AC6
:100B5000B8000AEB8811B0FBF1FB2868ABEB000092
:100B6000C0012968B0FBF1F006900698022803D96D
:100B7000002007B0BDE8F08FC4F82480C4F828A096
:100B8000E66AA888E98808432989084369890843EF
:100B90000643E662266B4FF680708643A8890643BB
:100BA00026630120E5E7000000000240000003404A
:100BB000008003400146086880B27047CAB20260F4
:100BC00070470000FFF744FBFFF7D0FE0948FFF72E
:100BD00005FDFFF7BBFBFFF765FBFFF7AFFE07E087
:100BE00033210548FFF7A8FEFFF7A8FEFFF714FB27
:100BF000F6E700000400002000000A401C0C00087A
:100C00000000002004000000FC000008200C000888
:100C1000040000209C0600001801000800127A0061
:04000005080000C12E
:00000001FF
