:020000040800F2
:10000000700600205D010008650100086701000816
:10001000690100086B0100086D0100080000000084
:100020000000000000000000000000006F01000858
:10003000710100080000000073010008750100084C
:100040007701000877010008770100080000000030
:100050000000000077010008770100087701000820
:100060007701000800000000770100087701000810
:100070007701000800000000770100087701000800
:1000800077010008770100080000000077010008F0
:1000900077010008000000000000000000000000E0
:1000A00000000000000000000000000077010008D0
:1000B0007701000877010008770100087701000840
:1000C00000F002F800F03AF80AA090E8000C824430
:1000D0008344AAF10107DA4501D100F02FF8AFF20D
:1000E000090EBAE80F0013F0010F18BFFB1A43F016
:1000F00001031847B0040000D0040000103A24BFE8
:1001000078C878C1FAD8520724BF30C830C144BF7C
:1001100004680C60704700000023002400250026BE
:10012000103A28BF78C1FBD8520728BF30C148BF5A
:100130000B6070471FB51FBD10B510BD00F031F842
:100140001146FFF7F7FF00F003FA00F04FF803B491
:10015000FFF7F2FF03BC00F057F8000009488047A2
:1001600009480047FEE7FEE7FEE7FEE7FEE7FEE799
:10017000FEE7FEE7FEE7FEE704480549054A064BB1
:100180007047000005050008C1000008700000204D
:100190007006002070020020700200207047704737
:1001A0007047754600F02CF8AE4605006946534688
:1001B00020F00700854618B020B5FFF7DDFFBDE849
:1001C00020404FF000064FF000074FF000084FF0BE
:1001D000000B21F00701AC46ACE8C009ACE8C0094F
:1001E000ACE8C009ACE8C0098D46704710B50446BC
:1001F000AFF300802046BDE81040FFF7A8BF000025
:10020000004870471000002001491820ABBEFEE7EF
:10021000260002007047000010B50121480600F0DA
:1002200011F9064800F000F90449054800F00AF801
:1002300000214FF0007000F005F910BD040000200F
:1002400000800C402DE9FE4F4768D0F808C0D0F878
:100250000C80D0F81090D0F814A0CDF808A0D0F8F9
:1002600018A0CDF804A0D0F81CA0CDF800A0002262
:10027000012303254FF001160C885FE004F0010A0A
:10028000BAF1000F55D027EA030A91F802B00BFA31
:1002900002FB4AEA0B0791F808A04FEA420B0AFA60
:1002A0000BFA2CEA050B4AEA0B0C28EA030A91F830
:1002B0000AB00BFA02FB4AEA0B0829EA060A91F88F
:1002C00003B002F1100E0BFA0EFB4AEA0B0A91F88A
:1002D00004B00BFA02FB4AEA0B09DDF808A02AEA8F
:1002E000060A91F805B00BFA0EFB4AEA0B0A91F8E0
:1002F00006B00BFA02FB4AEA0B0ACDF808A091F807
:1003000009A04FEA420B0AFA0BFADDF804B02BEA17
:10031000050B4AEA0B0ACDF804A0DDF800A02AEA92
:10032000030A91F807B00BFA02FB4AEA0B0ACDF870
:1003300000A05B00AD007600521C6408002C9DD12B
:10034000DFF8C4A0504502D14FF01F0A01E04FF082
:10035000000A27EA0A0AC0F804A0DFF8ACA050455A
:1003600002D14FF01F0A01E04FF0000A2CEA0A0AFE
:10037000C0F808A0DFF890A0504502D14FF01F0A46
:1003800001E04FF0000A28EA0A0AC0F80CA0DFF8E2
:1003900078A0504502D14FF01F0A01E04FF0000A4B
:1003A00029EA0A0AC0F810A0DFF85CA0504502D183
:1003B0004FF01F0B01E04FF0000BDDF808A02AEA18
:1003C0000B0AC0F814A0DFF840A0504502D14FF04E
:1003D0001F0B01E04FF0000BDDF804A02AEA0B0A26
:1003E000C0F818A0DFF820A0504502D14FF01F0B35
:1003F00001E04FF0000BDDF800A02AEA0B0AC0F87C
:100400001CA0BDE8FE8F000000000C400268054BF8
:10041000984201D11F2300E000239A430A4302605F
:100420007047000000000C404FF6FF710180002172
:100430008170C170017141718171C171017241722C
:100440008172704729B1064AD2690243044BDA61CE
:1004500004E0034AD2698243014BDA61704700002D
:100460000000024070B5244AD26802F00202022A5B
:1004700001D1224800E021481F4AD26802F001025F
:1004800002B1400801461C4AD26802F00402042A64
:1004900005D1194A5268C2F30322541C6143164A1B
:1004A000D268C2F3012222B1012A06D0022A1BD14E
:1004B00015E0124D124E35601BE00F4DED68C5F38F
:1004C000031202F0080535B102F00702022595403B
:1004D000B1FBF5F300E00B46094D2B6009E04FF44A
:1004E0000045074E356004E049F64045044E35604E
:1004F00000BF00BF70BD00000000024000127A0083
:100500000000002000B54FF000600E4908600E4862
:100510000E49C8610846C0680020C86008464068A7
:10052000002048600846806800208860084600690E
:10053000002008610846406900204861FFF792FFEB
:1005400000BD000008ED00E01000000800000240BF
:10055000FFF762FE01214806FFF774FF0F200F49E5
:10056000088001208870002008720120887248727B
:100570000B48FFF767FE01210948FFF747FF0221FB
:100580000748FFF743FF04210548FFF73FFF082115
:100590000348FFF73BFF00BFFEE700000400002018
:1005A00000800C40C405000800000020040000008A
:1005B000FC000008C8050008040000206C060000CC
:0805C0001801000800127A0086
:04000005080000C12E
:00000001FF
